:100000000A128A11E82F00308A000408840A820745
:10001000003443346834653463346B3420347334CF
:1000200075346D3420346534723472346F34723404
:100030000034663472346F346D3420347434683470
:1000400065342034733465346E3473346F347234F1
:1000500000344E346F342034723465347334703469
:0A0060006F346E34733465340034DD
:1004900064008001840A0406031900340406492A12
:1004A00001300A128A1175250A128A111430FD00D2
:1004B0007930FC00FC0B5A2AFD0B5A2A5F2A0800EF
:1004C0007E088A007F08820060220A128A1180005A
:1004D000840A04087D0603190034FF0A0319FE0A82
:1004E000642AFD007D088400831380080319080036
:1004F0007D088400831300080A128A11E4240A127A
:100500008A110130FC007C08FD07722A4230F2009B
:10051000F20B882A000083120313071808008530A5
:10052000F200F20B912A83120313071C0800853096
:10053000F200F20B992A0130F0000030F1000800BF
:100540008316031307108312031307104130F100C1
:10055000EE30F000F00BAA2AF10BAA2A0000831259
:10056000031307143130F000F00BB42AB72A8316B6
:10057000031307140800543465346D347034203488
:100580003D342034303430342E343034203443344D
:100590000034523448342034203420343D34203464
:1005A000303430342E343034203425340034F301E8
:1005B000F4017408803AFF0080307F02031DE22AB4
:1005C00014307302031808000330F2008A30F1007F
:1005D0005630F000F00BEA2AF10BEA2AF20BEA2A75
:1005E000F12A0130F3070318F40A0030F407D92A7E
:1005F000831603138601023083120313B5000430FF
:10060000B400BA30B300B30B032BB40B032BB50B00
:10061000032B000002300A128A1175250A128A1172
:1006200028300A128A1175250A128A1101300A121D
:100630008A1175250A128A110C300A128A11752541
:100640000A128A1106300A128A11752508007908E3
:1006500078040319542BFD01FD0AF91B3B2B0130D3
:100660000310F80DF90DFF3E031D302B0130FC0087
:100670007C08FD072D2B79087B02031D412B780890
:100680007A02031C492B7808FA027908031CFB0341
:10069000FB0201300310F90CF80CFF3E031D4A2B3E
:1006A0000130FD02031D3B2B7B08F901F9077A0895
:1006B000F801F8070800F501F60171087004031944
:1006C000922BF701F70AF11B712B01300310F00D8B
:1006D000F10DFF3E031D662B0130F4007408F7078F
:1006E000632B01300310F50DF60DFF3E031D722B39
:1006F00071087302031D7E2B70087202031C872B86
:100700007008F2027108031CF303F3027514013040
:100710000310F10CF00CFF3E031D882B0130F70293
:10072000031D712B7608F101F1077508F001F00740
:100730000800F501083075020318D72B8312031344
:10074000071C9E2B3130F200F20BA42BA72B831237
:1007500003130718BD2B0130F2007503FF3A073E63
:10076000013EB42B0310F20DFF3E031DB22B7208A5
:10077000FF3AF3007308F405CF2B0130F200750344
:10078000FF3A073E013EC62B0310F20DFF3E031D4C
:10079000C42B7208F3007308F4040718CD2B013042
:1007A000F2007208F50708307502031C9E2B7408CE
:1007B000F200F3017208F0007308F10008008312E0
:1007C0000313B400B5011E2C7C080F398038B30028
:1007D0003308B50035080A128A1175250A128A11E4
:1007E0002E2C7C080F39C03883120313B300330852
:1007F000B50035080A128A1175250A128A112E2CA5
:100800007C080F39943883120313B3003308B50002
:1008100035080A128A1175250A128A112E2C7C08B5
:100820000F39D43883120313B3003308B5003508E9
:100830000A128A1175250A128A112E2C83120313AB
:100840003408013A0319E42B033A0319F12B013A56
:100850000319002C073A03190F2C2E2C7D080A12BD
:100860008A11E424080083120313B600B701722C26
:1008700033080F398038B5003508B70037080A1239
:100880008A1175250A128A11822C831203133308E8
:100890000F39C038B5003508B70037080A128A1179
:1008A00075250A128A11822C8312031333080F391B
:1008B0009438B5003508B70037080A128A11752533
:1008C0000A128A11822C8312031333080F39D43889
:1008D000B5003508B70037080A128A1175250A12C3
:1008E0008A11822C831203133608013A0319382C1B
:1008F000033A0319452C013A0319542C073A0319FA
:10090000632C822C8312031334080A128A11712279
:100910000800F601F11F932CF009F109F00A031900
:10092000F10AF601F60AF31F9E2CF209F309F20A06
:100930000319F30A0130F4007408F606F701F80110
:10094000710870040319D52CF501F50AF11BB42CBC
:1009500001300310F00DF10DFF3E031DA92C0130F5
:10096000F4007408F507A62C01300310F70DF80DFC
:10097000FF3E031DB52C71087302031DC12C7008C6
:100980007202031CCA2C7008F2027108031CF303E4
:10099000F302771401300310F10CF00CFF3E031D3D
:1009A000CB2C0130F502031DB42C76080319DD2C85
:1009B000F709F809F70A0319F80A7808F101F107AD
:1009C0007708F001F007080083120313B000B101AB
:1009D000B2013208803AFF0080307F02031DF22C02
:1009E0000830310203182C2D83120313300801390B
:1009F000F900FA013108FB007B07203E84007908EA
:100A000083138000840A7A0880000230F0000030EE
:100A1000F1003008F900FA017908F2007A08F300D1
:100A20000A128A1189240A128A117008FB007B08B5
:100A300083120313B0000130B1070318B20A00306B
:100A4000B2073208803AFF0080307F02031D2A2D52
:100A500008303102031CF42C831203132808031DF1
:100A60000615031906112A08031D86150319861198
:100A70002C08031D0616031906122E08031D8616E0
:100A800003198612061486140000831203138610BD
:100A90000730FA007D30F900F90B4C2DFA0B4C2D84
:100AA000831203132008031D0615031906112208DB
:100AB000031D8615031986112408031D0616031944
:100AC00006122608031D86160319861286140000D6
:100AD0008312031386101430FA007930F900F90BF1
:100AE0006F2DFA0B6F2D742D080083120313B000C5
:100AF000B101B2013208803AFF0080307F02031D4D
:100B0000832D083031020318BD2D831203133008E2
:100B10000139F900FA013108FB007B07203E84000F
:100B2000790883138000840A7A0880000230F0007C
:100B30000030F1003008F900FA017908F2007A0873
:100B4000F3000A128A1189240A128A117008FB0024
:100B50007B0883120313B0000130B1070318B20AF7
:100B60000030B2073208803AFF0080307F02031D58
:100B7000BB2D08303102031C852D83120313280876
:100B8000031D0615031906112A08031D86150319EE
:100B900086112C08031D0616031906122E08031DC4
:100BA000861603198612061086140000831203139A
:100BB00086100730FA007D30F900F90BDD2DFA0BB5
:100BC000DD2D831203132008031D061503190611DA
:100BD0002208031D8615031986112408031D061615
:100BE000031906122608031D861603198612861499
:100BF00000008312031386101430FA007930F900D4
:100C0000F90B002EFA0B002E052E08000A128A118D
:100C1000F8220A128A11552F0A128A1150220A123A
:100C20008A11FC01FC0A293083120313B80038082A
:100C3000FD0001300A128A11DF230A128A11FC0119
:100C4000FC0A193083120313B8003808FD00023083
:100C50000A128A11DF230A128A11552F6108DF0157
:100C6000DF076008DE01DE075E08B900B801620830
:100C70003804DE0063083904DF006508E901E9078C
:100C80006408E801E8076808B900B8016608380494
:100C9000E80067083904E90080306902013003196F
:100CA0006802031C5E2E2D30B8003808C600FF30E5
:100CB0006805E8007F306905E900622E2030B80041
:100CC0003808C6000A30F8000030F9006430F0003F
:100CD0000030F1006908F301F3076808F201F20738
:100CE0000A128A115B230A128A117108FB01FB07A1
:100CF0007008FA01FA070A128A1127230A128A11C8
:100D00007808303E83120313B8003808C7000A3051
:100D1000F8000030F9000A30F0000030F1006908F6
:100D2000F301F3076808F201F2070A128A115B2344
:100D30000A128A117108FB01FB077008FA01FA0711
:100D40000A128A1127230A128A117808303E831268
:100D50000313B8003808C8000A30F8000030F90062
:100D60006908FB01FB076808FA01FA070A128A11F1
:100D700027230A128A117808303E83120313B80021
:100D80003808CA000A30F8000030F9006430F0007A
:100D90000030F1005F08F301F3075E08F201F2078B
:100DA0000A128A115B230A128A117108FB01FB07E0
:100DB0007008FA01FA070A128A1127230A128A1107
:100DC0007808303E83120313B8003808D5000A3083
:100DD000F8000030F9000A30F0000030F1005F0840
:100DE000F301F3075E08F201F2070A128A115B238E
:100DF0000A128A117108FB01FB077008FA01FA0751
:100E00000A128A1127230A128A117808303E8312A7
:100E10000313B8003808D6000A30F8000030F90093
:100E20005F08FB01FB075E08FA01FA070A128A1144
:100E300027230A128A117808303E83120313B80060
:100E40003808D800DF30B8003808CB000A128A1101
:100E500050220A128A1183120313B301B30A4030DD
:100E6000B8003808B40001300A128A1133240A127B
:100E70008A1183120313B301B30A4E30B800380845
:100E8000B40002300A128A1133240A128A11333054
:100E900083120313BA00BC30B9001030B800B80B8D
:100EA0004F2FB90B4F2FBA0B4F2F0A128A11D7228F
:100EB0000A128A110A128A11A0220A128A110A122F
:100EC0008A1186220A128A11710883120313EB0118
:100ED000EB077008EA01EA076B086A0403190C2E95
:100EE0000A128A1199230A128A11710883120313B4
:100EF000E101E1077008E001E0070A128A11992375
:100F00000A128A11710883120313E301E3077008C0
:100F1000E201E2070A128A1199230A128A11710862
:100F200083120313E501E5077008E401E4070A12E0
:100F30008A1199230A128A11710883120313E70197
:100F4000E7077008E601E6070A128A1199230A12D8
:100F50008A11710883120313DD01DD077008DC01BB
:100F6000DC0762086007B80063080318630A6107BA
:100F7000B90064083807BA0065080318650A39071C
:100F8000BB0066083A07BC0067080318670A3B07FE
:100F9000BD00FF303C05BE0000303D05BF005D08D0
:100FA0003F06031DD52F5C083E0603192E2E023086
:100FB00083120313B8003808FC000930B90039085F
:100FC000FD0001300A128A11DF230A128A11552FFF
:100FD00083135C3084006C300A128A1148220A1292
:100FE0008A115C30FD000230FE00BB30FF00403053
:100FF00084000A128A11642283010A128A11062EC1
:02400E007AFF37
:00000001FF
