:060000000A128A11122809
:10000800FE00030EF4000408F5000A08F600831247
:1000180003137F08F7000A128A111D280A128A1191
:100028001528F001F101F201F30183010A128A1186
:100038005E280B1D53280130F0070318F10A003021
:10004800F107643070067104031D32280130F2078D
:100058000318F30A0030F307F001F10105307206C6
:100068007304031D43280310861F0314031C402830
:1000780083120313861743288312031386130A3047
:100088007206730403190514143072067304031DF1
:1000980050280510F201F301653081000B11770833
:1000A800FF0076088A0075088400740E8300FE0E2F
:1000B8007E0E09008316031386018501831203133C
:1000C8008601850184308316031381008B170B1773
:0C00D8008B166430831203138100712822
:02400E007AFF37
:00000001FF
