:020000040000FA
:04000000DAEF0AF039
:0F080000004D454454454E530056312E300000F4
:100810001250800B1F6E12501224266E11AE13EF71
:1008200004F015EF04F016EF04F026802650D8B43B
:100830001CEF04F01EEF04F033EF04F02628D8A4D8
:1008400024EF04F026EF04F02EEF04F0000E0F6EFC
:10085000000E106E000E116E000E126E118E000E44
:10086000126E3BEF04F0000E0F6E000E106E000EC5
:10087000116E000E126E1650800B1F1A16501624A1
:10088000276E15AE46EF04F048EF04F049EF04F090
:1008900027802750D8B44FEF04F051EF04F066EFF3
:1008A00004F02728D8A457EF04F059EF04F061EFC3
:1008B00004F0000E136E000E146E000E156E000E86
:1008C000166E158E000E166E6EEF04F0000E136E8F
:1008D000000E146E000E156E000E166E13501410DE
:1008E00015101610D8A477EF04F079EF04F091EF0B
:1008F00004F0000E0F6E000E106E000E116E000E52
:10090000126E800E11127F0E12121F5012120FC0A3
:100910000FF010C010F011C011F012C012F0D4EF9F
:1009200005F02650D8A497EF04F099EF04F0A3EF58
:1009300004F0000E0F6E000E106E000E116E000E11
:10094000126ED4EF05F0275026C017F0186A175E14
:10095000000E185A7F0E1724206E000E1820216EEC
:100960000FC01BF010C01CF011C01DF012C01EF013
:10097000000E0F6E000E106E000E116E000E126E45
:10098000000E226E000E236E000E246E000E256EE9
:10099000000E276E04EF05F02750D8B4D2EF04F014
:1009A000D4EF04F0EBEF04F0D8901B361C361D3664
:1009B0001E36D8900F3610361136123625AEE3EFBC
:1009C00004F0E5EF04F0E6EF04F00F80D890223653
:1009D00023362436253613501B5C14501C581550F2
:1009E0001D5816501E58D8A0F8EF04F0FAEF04F086
:1009F00003EF05F0258C13501B5E14501C5A155044
:100A00001D5A16501E5A272A190E27640AEF05F0A0
:100A10000CEF05F0CCEF04F01B501C101D101E1045
:100A2000D8B415EF05F017EF05F02FEF05F0228091
:100A30002FEF05F0D8900F3610361136123625AE4E
:100A400024EF05F026EF05F027EF05F00F80D89092
:100A500022362336243625362006D8A0210611AEAC
:100A600034EF05F036EF05F01AEF05F0000E276EB3
:100A700025AE3DEF05F03FEF05F063EF05F0FF0E0B
:100A80002214176EFF0E2314186EFF0E2414196E15
:100A90007F0E25141A6E1750181019101A10D8B49A
:100AA00054EF05F056EF05F05AEF05F0010E276EF2
:100AB00063EF05F00FA05FEF05F061EF05F063EF66
:100AC00005F056EF05F02750D8B469EF05F06BEF4D
:100AD00005F08FEF05F0010E0F26000E10221122F7
:100AE000122212A076EF05F078EF05F08FEF05F0F7
:100AF0000FC017F010C018F011C019F012C01AF092
:100B00001A341A3219321832173217C00FF018C0BF
:100B100010F019C011F01AC012F0204A212A21BE8B
:100B20009AEF05F0215008E12028D8A09AEF05F0AF
:100B30009CEF05F0A7EF05F0000E216E2068000E77
:100B40000F6E000E106E000E116E000E126E21BEA2
:100B5000B4EF05F0215006E12004D8B0B2EF05F063
:100B6000B4EF05F0C2EF05F0000E216E000E206E0E
:100B7000000E0F6E000E106E000E116E000E126E43
:100B8000000E1F6E20C026F026A0C9EF05F0CBEFA7
:100B900005F0CEEF05F0118ECFEF05F0119ED89045
:100BA0002630126E85EF04F01200770ED36E000E21
:100BB000B46E939E939C92808A9E8A9C000E026ED5
:100BC000010E016EF5EC0AF0BCEC0AF005EC0BF03E
:100BD000030E206E010E216E080E226E010EDCEC5B
:100BE00009F0030E206E090E216E080E226E030E10
:100BF000DCEC09F0340E326EF20EE82EFED7322E07
:100C0000FCD7000E026E010E016EF5EC0AF0000E2C
:100C1000026E000E016E90EC0AF001C04AF002C0B4
:100C20004BF0140E136EAE0E146E230E156E410EA5
:100C3000166E4AC001F04BC002F0036A046A000E4F
:100C4000C9EC06F001C00FF002C010F003C011F0B3
:100C500004C012F008EC04F00FC028F010C029F016
:100C600011C02AF012C02BF0A3EC07F028C04AF004
:100C700029C04BF0820E326EDE0EE82EFED7322EE9
:100C8000FCD7000E026E010E016E90EC0AF001C05E
:100C900048F002C049F048C001F049C002F0000E1F
:100CA000046E0A0E036E27EC0AF001C048F002C081
:100CB00049F0820E326EDE0EE82EFED7322EFCD7C1
:100CC0003C0E016E000E026E4AC003F04BC004F0F1
:100CD00026EC08F0340E016E000E026E48C003F0E0
:100CE00049C004F026EC08F0030E206E3C0E216E85
:100CF000000E226E020EDCEC09F00B0E206E340E9C
:100D0000216E000E226E020EDCEC09F0340E326E03
:100D1000F20EE82EFED7322EFCD74B5009E11E0E04
:100D20004A5CD8A096EF06F098EF06F0A7EF06F021
:100D30004B5007E1510E4A5CD8B0A1EF06F0A3EF8B
:100D400006F0A7EF06F08A8C8A9EE8EF05F08A9CF1
:100D50008AAEADEF06F0B1EF06F0326A322AB2EF9A
:100D600006F0326A323232328A5032187F0B321831
:100D70008A6E020E336E040E326EBA0EE82EFED765
:100D8000322EFCD7332EFAD700D0E8EF05F000EF73
:100D900000F0096E0950D8B4D0EF06F0D2EF06F09B
:100DA000F4EF06F004BED9EF06F0D7EF06F0F4EF4B
:100DB00006F001C005F002C006F003C007F004C051
:100DC00008F0051E061E071E081E052A000E062234
:100DD0000722082205C00BF006C00CF007C00DF07A
:100DE00008C00EF0FCEF06F001C00BF002C00CF0E2
:100DF00003C00DF004C00EF00150021003100410E7
:100E0000D8A405EF07F007EF07F011EF07F0000E89
:100E1000016E000E026E000E036E000E046EA2EF55
:100E200007F0960E0A6E1BEF07F00A2AD8900E32D2
:100E30000D320C320B32000E0B14056E000E0C142A
:100E4000066E000E0D14076EFE0E0E14086E055091
:100E5000061007100810D8A430EF07F032EF07F0A3
:100E600015EF07F040EF07F00A2A010E0B26000EDF
:100E70000C220D220E22D8900E320D320C320B3283
:100E8000000E0B14056E000E0C14066E000E0D14F1
:100E9000076EFF0E0E14086E05500610071008109E
:100EA000D8A455EF07F057EF07F034EF07F05FEFE6
:100EB00007F00A06D8900B360C360D360E360DBEEE
:100EC00064EF07F066EF07F06EEF07F0020E0A60BE
:100ED0006CEF07F06EEF07F059EF07F00AB073EF11
:100EE00007F075EF07F076EF07F00D9ED8900A3205
:100EF0000AC005F0066A076A086A05C008F0076AB2
:100F0000066A056A05500B1206500C1207500D12A6
:100F100008500E120950D8B490EF07F092EF07F086
:100F20009AEF07F004BE99EF07F097EF07F09AEFFA
:100F300007F00E8E0BC001F00CC002F00DC003F0E4
:100F40000EC004F012002A342B34316E3150D8A474
:100F5000ACEF07F0AEEF07F0B8EF07F0000E286E29
:100F6000000E296E000E2A6E000E2B6E25EF08F083
:100F700028C02CF029C02DF02AC02EF02BC02FF055
:100F8000200EC8EF07F0D8902F322E322D322C329F
:100F9000E82EC3EF07F02C50306E2A8EFF0E281675
:100FA000FF0E2916FF0E2A16000E2B16960E315E26
:100FB00031BEDFEF07F0DDEF07F0F5EF07F031505E
:100FC000800A970FD8B0E7EF07F0E9EF07F0EBEFF3
:100FD00007F0AEEF07F0D8902B322A3229322832B0
:100FE000313EEBEF07F00DEF08F01F0E3164FBEF21
:100FF00007F0FDEF07F005EF08F0AEEF07F0D8902F
:10100000283629362A362B3631063150D8A40BEF34
:1010100008F00DEF08F0FFEF07F03050D8B413EFF1
:1010200008F015EF08F01DEF08F02B1E2A1E291EF0
:10103000286C000E29222A222B2228C028F029C041
:1010400029F02AC02AF02BC02BF01200000E066EE9
:10105000000E056E000E076E000E086E03C009F04C
:1010600004C00AF0E80E095C030E0A58D8B03BEF42
:1010700008F03DEF08F03FEF08F046EF08F0062AD1
:10108000E80E095E030E0A5A32EF08F00A5007E133
:10109000640E095CD8B04FEF08F051EF08F053EF41
:1010A00008F05AEF08F0052A640E095E000E0A5A8D
:1010B00046EF08F00A5007E10A0E095CD8B063EF6A
:1010C00008F065EF08F067EF08F06EEF08F0072A08
:1010D0000A0E095E000E0A5A5AEF08F009500A106B
:1010E000D8A475EF08F077EF08F079EF08F07FEFFC
:1010F00008F0082A0906D8A00A066EEF08F0065084
:10110000300F066E0550300F056E0750300F076E1A
:101110000850300F086E20EE04F00150D92602501E
:10112000DA2207C0DFFF20EE05F00150D926025079
:10113000DA2208C0DFFF12001B6E000E1D6E000ECB
:101140001C6E1B50010B096E0A6AD8901C34D96EB4
:101150001D34DA6E0B0ED926000EDA2209C0DEFF2E
:101160000AC0DDFF1BC001F0026A000E046E020E11
:10117000036E7AEC09F001501B6E1C4A1D2A1DBE3D
:10118000CBEF08F01D5009E1080E1C5CD8A0CBEF96
:1011900008F0CDEF08F0A1EF08F013B002D08A9468
:1011A00001D08A8415B002D08A9601D08A8617B001
:1011B00002D08A9801D08A8819B002D08A9A01D0C8
:1011C0008A8A8A808A8200F08A92030E096E980EBB
:1011D000E82EFED7092EFCD70BB002D08A9401D09E
:1011E0008A840DB002D08A9601D08A860FB002D0D0
:1011F0008A9801D08A8811B002D08A9A01D08A8A4E
:101200008A8200F08A92080E096ECA0EE82EFED776
:10121000092EFCD712001B6E000E1D6E000E1C6EF8
:101220001B50010B096E0A6AD8901C34D96E1D340C
:10123000DA6E0B0ED926000EDA2209C0DEFF0AC0D4
:10124000DDFF1BC001F0026A000E046E020E036E89
:101250007AEC09F001501B6E1C4A1D2A1DBE3AEFA4
:1012600009F01D5009E1080E1C5CD8A03AEF09F006
:101270003CEF09F010EF09F013B002D08A9401D0CE
:101280008A8415B002D08A9601D08A8617B002D01F
:101290008A9801D08A8819B002D08A9A01D08A8AA5
:1012A0008A908A8200F08A92030E096E980EE82EC8
:1012B000FED7092EFCD70BB002D08A9401D08A84C5
:1012C0000DB002D08A9601D08A860FB002D08A98DB
:1012D00001D08A8811B002D08A9A01D08A8A8A8283
:1012E00000F08A92080E096ECA0EE82EFED7092E6B
:1012F000FCD71200000E066E04BE83EF09F081EFEA
:1013000009F089EF09F0036C041ED8B0042A010E1D
:10131000066E02BE90EF09F08EEF09F096EF09F02D
:10132000016C021ED8B0022A010E061A000E086EC9
:10133000000E076E03500410D8B4A1EF09F0A3EF1C
:1013400009F0CBEF09F0010E056EABEF09F0D89074
:1013500003360436052A04AEB0EF09F0B2EF09F007
:10136000A7EF09F0D890073608360350015C045007
:101370000258D8A0BEEF09F0C0EF09F0C5EF09F0A0
:101380000350015E0450025A0780D89004320332A1
:10139000052EB2EF09F00650D8B4D1EF09F0D3EF23
:1013A00009F0D7EF09F0076C081ED8B0082A07C06B
:1013B00001F008C002F01200256E03EF0AF0205081
:1013C0000F0B8009266E26500BEC09F020EF0AF077
:1013D00020500F0BC009266E26500BEC09F020EFB1
:1013E0000AF020500F0B9409266E26500BEC09F0E2
:1013F00020EF0AF020500F0BD409266E26500BEC7C
:1014000009F020EF0AF02550236E246A2450000AC8
:10141000D8B40DEF0AF020EF0AF02350010AD8B437
:10142000DFEF09F0030AD8B4E8EF09F0010AD8B4F5
:10143000F1EF09F0070AD8B4FAEF09F020EF0AF04B
:1014400021C01EF022C01FF061EC0AF01200000E55
:10145000066E000E056E03500410D8B432EF0AF089
:1014600034EF0AF05CEF0AF0010E076E3CEF0AF071
:10147000D89003360436072A04AE41EF0AF043EF52
:101480000AF038EF0AF0D890053606360350015CB2
:1014900004500258D8A04FEF0AF051EF0AF056EF6F
:1014A0000AF00350015E0450025A0580D8900432BD
:1014B0000332072E43EF0AF005C001F006C002F028
:1014C000120077EF0AF01EC0F6FF1FC0F7FFF86AA0
:1014D000070EF76403D00800F55005D0F6CFD9FF0A
:1014E000F7CFDAFFDF509CEC08F01E4A1F2A1EC01F
:1014F000F6FF1FC0F7FFF86A070EF76403D0080075
:10150000F55005D0F6CFD9FFF7CFDAFFDF5000094D
:10151000D8A48DEF0AF08FEF0AF063EF0AF0120003
:1015200001C003F003460346C2500318C30B03185F
:10153000C26EC280C282C2B2A0EF0AF0A2EF0AF06D
:101540009BEF0AF0C450076E086A096A0A6AC35022
:1015500007C004F008C005F009C006F0036A0310D4
:10156000076E0450086E0550096E06500A6E07C0DB
:1015700001F008C002F01200939093929394939616
:101580009398939A680E1E6EE40EE82EFED71E2ED8
:10159000FCD700D0020E0BEC09F0280E0BEC09F082
:1015A000010E0BEC09F00C0E0BEC09F0060E0BEC27
:1015B00009F01200200EF66E160EF76E000EF86E91
:1015C00000EE34F010EE10F00900F5CFEEFFE5501C
:1015D000E150FAE100EE44F0080EEE6AE806FDE1A3
:1015E000000EF86E0001D5EF05F0C198C19A0150C8
:1015F0000E08036EC1500318F00B0318C16EC08EA5
:10160000380EC012F80EC0161200010E0BEC09F0D5
:10161000080E1E6ECA0EE82EFED71E2EFCD7120034
:1016200053323A203030250053313A2030302500F3
:020000040020DA
:08000000FFFFFFFFFFFFFFFF00
:020000040030CA
:0E000000210B1F1EFF0381FF0FC00FE00F40FA
:00000001FF
