:020000040000FA
:0400000043EF07F0D3
:0F080000004D454454454E530056312E300000F4
:10081000939E939C92808A9E8A9C000E026E000E8C
:10082000016E5AEC07F027EC07F06AEC07F0030EB4
:10083000206E010E216E080E226E010E52EC06F0A3
:10084000030E206E090E216E080E226E030E52EC6E
:1008500006F0340E276EF20EE82EFED7272EFCD7B8
:10086000000E026E000E016EFBEC06F001C02EF0D1
:1008700002C02FF0290E016E000E026E2EC003F092
:100880002FC004F092EC04F0030E206E290E216EAE
:10089000000E226E020E52EC06F0340E276EF20E9F
:1008A000E82EFED7272EFCD76AEC07F02C0E2E5C24
:1008B000010E2F58D8A05FEF04F061EF04F070EF45
:1008C00004F0210E2E5C030E2F58D8B06AEF04F00E
:1008D0006CEF04F070EF04F08A8C8A9E17EF04F03E
:1008E0008A9C8AAE76EF04F07AEF04F0276A272A12
:1008F0007BEF04F0276A273227328A5027187F0BB4
:1009000027188A6E020E286E040E276EBA0EE82E85
:10091000FED7272EFCD7282EFAD700D017EF04F0E9
:1009200000EF00F0000E086E000E076E000E056E60
:10093000000E066E03C009F004C00AF0E80E095C60
:10094000030E0A58D8B0A7EF04F0A9EF04F0ABEFFC
:1009500004F0B2EF04F0082AE80E095E030E0A5A0A
:100960009EEF04F00A5007E1640E095CD8B0BBEFBB
:1009700004F0BDEF04F0BFEF04F0C6EF04F0072A67
:10098000640E095E000E0A5AB2EF04F00A5007E145
:100990000A0E095CD8B0CFEF04F0D1EF04F0D3EF2A
:1009A00004F0DAEF04F0052A0A0E095E000E0A5A76
:1009B000C6EF04F009500A10D8A4E1EF04F0E3EF09
:1009C00004F0E5EF04F0EBEF04F0062A0906D8A0E6
:1009D0000A06DAEF04F00850300F086E0750300FA7
:1009E000076E0550300F056E0650300F066E01C0C1
:1009F000D9FF02C0DAFF08C0DFFF20EE01F001508E
:100A0000D9260250DA2207C0DFFF20EE02F00150A3
:100A1000D9260250DA2205C0DFFF20EE03F0015094
:100A2000D9260250DA2206C0DFFF12001B6E000E2C
:100A30001D6E000E1C6E1B50010B096E0A6AD890C9
:100A40001C34D96E1D34DA6E0B0ED926000EDA2254
:100A500009C0DEFF0AC0DDFF1BC001F0026A000E04
:100A6000046E020E036EF0EC05F001501B6E1C4A82
:100A70001D2A1DBE45EF05F01D5009E1080E1C5C46
:100A8000D8A045EF05F047EF05F01BEF05F013B0D8
:100A900002D08A9401D08A8415B002D08A9601D0FF
:100AA0008A8617B002D08A9801D08A8819B002D0FD
:100AB0008A9A01D08A8A8A808A8200F08A92000EFD
:100AC000026E010E016ECCEC06F00BB002D08A94DF
:100AD00001D08A840DB002D08A9601D08A860FB0E8
:100AE00002D08A9801D08A8811B002D08A9A01D0A7
:100AF0008A8A8A8200F08A92000E026E030E016ECC
:100B0000CCEC06F012001B6E000E1D6E000E1C6E6B
:100B10001B50010B096E0A6AD8901C34D96E1D3423
:100B2000DA6E0B0ED926000EDA2209C0DEFF0AC0EB
:100B3000DDFF1BC001F0026A000E046E020E036EA0
:100B4000F0EC05F001501B6E1C4A1D2A1DBEB2EFD1
:100B500005F01D5009E1080E1C5CD8A0B2EF05F0AD
:100B6000B4EF05F088EF05F013B002D08A9401D0FD
:100B70008A8415B002D08A9601D08A8617B002D036
:100B80008A9801D08A8819B002D08A9A01D08A8ABC
:100B90008A908A8200F08A92000E026E010E016E27
:100BA000CCEC06F00BB002D08A9401D08A840DB050
:100BB00002D08A9601D08A860FB002D08A9801D0DE
:100BC0008A8811B002D08A9A01D08A8A8A8200F07B
:100BD0008A92000E026E030E016ECCEC06F012003B
:100BE000000E066E04BEF9EF05F0F7EF05F0FFEF1B
:100BF00005F0036C041ED8B0042A010E066E02BE76
:100C000006EF06F004EF06F00CEF06F0016C021E92
:100C1000D8B0022A010E061A000E086E000E076EEA
:100C200003500410D8B417EF06F019EF06F041EFA7
:100C300006F0010E056E21EF06F0D890033604365B
:100C4000052A04AE26EF06F028EF06F01DEF06F0A9
:100C5000D890073608360350015C04500258D8A0DB
:100C600034EF06F036EF06F03BEF06F00350015E7E
:100C70000450025A0780D89004320332052E28EF20
:100C800006F00650D8B447EF06F049EF06F04DEFF6
:100C900006F0076C081ED8B0082A07C001F008C08B
:100CA00002F01200256E79EF06F020500F0B80093C
:100CB000266E265083EC05F096EF06F020500F0BC1
:100CC000C009266E265083EC05F096EF06F0205002
:100CD0000F0B9409266E265083EC05F096EF06F074
:100CE00020500F0BD409266E265083EC05F096EFAA
:100CF00006F02550236E246A2450000AD8B483EFEE
:100D000006F096EF06F02350010AD8B455EF06F02E
:100D1000030AD8B45EEF06F0010AD8B467EF06F014
:100D2000070AD8B470EF06F096EF06F021C01EF067
:100D300022C01FF09DEC06F01200B3EF06F01EC0BB
:100D4000F6FF1FC0F7FFF86A070EF76403D008002C
:100D5000F55005D0F6CFD9FFF7CFDAFFDF5016EC0C
:100D600005F01E4A1F2A1EC0F6FF1FC0F7FFF86AD3
:100D7000070EF76403D00800F55005D0F6CFD9FF71
:100D8000F7CFDAFFDF500009D8A4C9EF06F0CBEFA8
:100D900006F09FEF06F01200000E046E000E036EC8
:100DA000EFEF06F0000E056E000E066E000E076EE9
:100DB000000E086E010E0526000E062207220822EC
:100DC00008500710061009E17A0E055CD8A0EBEF79
:100DD00006F0EDEF06F0DAEF06F0034A042A0150C0
:100DE000035C02500458D8A0F8EF06F0FAEF06F0C2
:100DF000D2EF06F0120001C003F003460346C250D2
:100E00000318C30B0318C26EC280C282C2B20BEFBA
:100E100007F00DEF07F006EF07F0C450076E086A01
:100E2000096A0A6AC35007C004F008C005F009C087
:100E300006F0036A0310076E0450086E0550096E31
:100E400006500A6E07C001F008C002F0120093902D
:100E50009392939493969398939A000E026E280E11
:100E6000016ECCEC06F0020E83EC05F0280E83EC4C
:100E700005F0010E83EC05F00C0E83EC05F0060E78
:100E800083EC05F01200E80EF66E0E0EF76E000E03
:100E9000F86E00EE29F010EE05F00900F5CFEEFF38
:100EA000E550E150FAE12F6A2E6A000EF86E00015B
:100EB00008EF04F0C198C19A01500E08036EC150AA
:100EC0000318F00B0318C16EC08E380EC012F80E56
:100ED000C0161200010E83EC05F0000E026E030E28
:0D0EE000016ECCEC06F01200303030300016
:020000040020DA
:08000000FFFFFFFFFFFFFFFF00
:020000040030CA
:0E000000000A1F1EFF0381FF0FC00FE00F401C
:00000001FF
